:020000040000FA
:100000000C949F000C94C7000C94C7000C94C7007C
:100010000C94C7000C94C7000C94C7000C94C70044
:100020000C94C7000C94C7000C94D6040C9445059E
:100030000C94C7000C94C7000C94C7000C94C70024
:100040000C94C7000C94BB070C94C7000C94C70019
:100050000C94C7000C94C7000C94C7000C94710753
:100060000C94C7000C94C7000C94C7000C94C700F4
:100070000C94C7000C94C7000C94C7000C94C700E4
:100080000C94C7000C94C7000C94C7000C94C700D4
:100090000C94C7000C94C7000C94C7000C94C700C4
:1000A0000C94C7000C94C7000C94C70006C0FF0A4C
:1000B000000CA1017508150026FF0095400901817B
:1000C00002954009029102C0080B000202020000E2
:1000D00009040000010202000005240010010524AB
:1000E000010101042402060524060001070581031D
:1000F00010004009040100020A0000000705020286
:1001000040000007058302400000040309041201B7
:100110000002EF0201404F1B0692000101020301A1
:10012000537061726B46756E00537061726B4675E9
:100130006E2050726F204D6963726F005908112450
:100140001FBECFEFDAE0DEBFCDBF12E0A0E0B1E02E
:10015000ECE0F6E102C005900D92A839B107D9F79D
:1001600024E0A8E9B2E001C01D92A238B207E1F78D
:1001700010E0CFE9D0E004C02197FE010E94FE0A02
:10018000CE39D107C9F70E94F8080C94040B0C94DF
:100190000000FC0180910E04882311F13FB7F89410
:1001A00082E08093E9002091F200822F90E01816FF
:1001B000190614F481E090E0882339F0289844E689
:1001C00040930D044091F1004083222339F02091A7
:1001D000F200211103C02BE62093E8003FBF0895F1
:1001E0008FEF9FEF08954091AF025091B0022091A0
:1001F000AD023091AE0242175307B4F49091E8007B
:100200009570E1F39091E80092FD19C08093F100A0
:100210008091AF029091B00201968F739927892B3C
:1002200019F48EEF8093E8008091AF029091B002B4
:1002300001969093B0028093AF0281E0089580E030
:100240000895EF92FF920F931F93CF93DF93F82EB1
:10025000192FE62E042F81E0860F880F0E94F300ED
:1002600083E00E94F300CF2DD12FEC0EFD2EF11C68
:10027000CE15DF05B9F007FF13C0FE0184910E947F
:10028000F300182F80E00E94F30081232196811152
:10029000EFCFDF91CF911F910F91FF90EF900895D5
:1002A0008881EDCF81E0F5CFDF92EF92FF920F933F
:1002B0001F93CF93DF93D82E8A01EB017B01E40ECD
:1002C000F51ECE15DF0559F0D7FE12C0FE01849150
:1002D0000E94F30021968111F4CF0FEF1FEFC801A8
:1002E000DF91CF911F910F91FF90EF90DF900895D4
:1002F0008881EECF2FB7F89487708093E9009091B2
:10030000E800892F807295FF04C09091F20080E48C
:10031000891B2FBF0895615030F02091F100FC013E
:1003200020830196F8CF289884E680930D040895E1
:10033000AF92BF92DF92EF92FF920F931F93CF93F2
:10034000DF935C018B01EB019BEFD92E2097C1F06D
:100350007E01C134D1051CF080E4E82EF12C80919F
:10036000E80082FFFCCFC8018C1B9D0B6E2D8A0D0F
:100370009B1D0E948B01D092E800CE19DF09E6CFC9
:10038000C801DF91CF911F910F91FF90EF90DF9007
:10039000BF90AF900895AF92BF92CF92DF92EF924D
:1003A000FF920F931F93CF93DF936C017B018B011F
:1003B000040F151FEB015E01AE18BF08C017D1076F
:1003C00059F06991D601ED91FC910190F081E02DF9
:1003D000C6010995892B79F7C501DF91CF911F914E
:1003E0000F91FF90EF90DF90CF90BF90AF90089566
:1003F0008091A50281110DC082E08093A10284E06A
:100400008093A2021092A4021092A30281E0809332
:10041000A50281EA92E008950F931F93CF93DF9393
:100420001F92CDB7DEB782E0898342E450E068ECEA
:1004300070E080E80E9454010E94F801DC011296ED
:100440000D911C910115110589F0D801ED91FC91D8
:100450000280F381E02DBE016F5F7F4FC8010995D7
:1004600097FD04C0F80100851185ECCF89810F90BC
:10047000DF91CF911F910F910895CF93DF931F923A
:10048000CDB7DEB76983DC01ED91FC910280F38189
:10049000E02D41E050E0BE016F5F7F4F09950F9066
:1004A000DF91CF91089583E08093E9008091F2007D
:1004B000882319F08AE38093E800089583E00E947E
:1004C0007A0190E00895CF93DF931F92CDB7DEB706
:1004D000FC018485958597FD08C02FEF3FEF358798
:1004E00024870F90DF91CF910895CE0101960E944D
:1004F000C900019719F4898190E0F3CF8FEF9FEF46
:10050000F0CF0F931F93CF93DF931F92CDB7DEB73A
:100510008C01FC018485958597FF0BC0CE01019667
:100520000E94C900019771F4898190E0F8019587D4
:100530008487F801848595850F90DF91CF911F9175
:100540000F9108958FEF9FEFF1CFFC018485958582
:1005500097FD0BC09FB7F89482E08093E9008091EB
:10056000F2009FBF90E0019608959FB7F89482E053
:100570008093E9008091F2009FBF90E008953FB71B
:10058000F89480919D0290919E02A0919F02B0915B
:10059000A00226B5A89B05C02F3F19F00196A11D0A
:1005A000B11D3FBFBA2FA92F982F8827BC01CD01BD
:1005B000620F711D811D911D42E0660F771F881F1C
:1005C000991F4A95D1F70895CF92DF92EF92FF924B
:1005D0000E94BF026B017C010E94BF026C197D0961
:1005E0008E099F09683E734081059105A8F3FF902D
:1005F000EF90DF90CF9008957F928F929F92AF926D
:10060000BF92CF92DF92EF92FF920F931F93CF93FF
:10061000DF93C82E8B017A0180910E04811110C0E6
:100620008FEF9FEFDF91CF911F910F91FF90EF9090
:10063000DF90CF90BF90AF909F908F907F90089564
:100640008091B30280FF05C08091E00082608093BA
:10065000E000CE2DDF2DD12C8AEFB82E8C2D8770A7
:10066000982E8C2D8072882E8C2D8074782E9AE393
:10067000A92E209719F4DD2009F44EC08C2D0E947C
:100680007A01811106C0BA94BB2051F20E94E402A3
:10069000F0CF8C171D0611F00CF08C2F9FB7F8943B
:1006A0009092E9002091E80025FD02C09FBFE1CFB4
:1006B000282F30E0C21BD30B882029F08150A0F0F6
:1006C0001092F100FBCFF801C7FC0AC0815050F036
:1006D00041914093F100FACF44914093F10031965B
:1006E0008150D0F7020F131FDD2021F0A092E80007
:1006F000D12CDCCF8091E80085FD07C0A092E800F6
:10070000DD24D394209791F2F3CF209779F67720C8
:1007100069F2A092E800CACF5D9884E68093B202A5
:10072000C70180CFCF93DF93EC0180910B01882329
:1007300031F083E00E94FC021816190634F081E0C3
:1007400090E09B838A8380E090E0DF91CF910895D1
:100750000F931F93CF93DF93EC01FB012A818481D8
:1007600095812817190641F491818081813A31F4ED
:100770009D7F81E0913049F080E007C08132E1F750
:100780009B3041F482818F8B81E0DF91CF911F916B
:100790000F9108959A3019F48381888FF5CF99309D
:1007A00059F7068117818381833081F489A19AA149
:1007B0000817190709F7B8018F8D98A10E949801B1
:1007C00089A19AA190689AA389A3DECF8230A1F66D
:1007D0008B8D9C8D892B81F6898D9A8D8017910741
:1007E0005CF2801B910B2D8D3E8DB801820F931F03
:1007F0000E9498011C8F0B8FC7CFFB0120812138ED
:10080000B1F42381223299F4DC0112964C911297B3
:10081000248135814217130651F421E057962C9319
:100820004CE150E06CEA70E080E80C94540190E0F8
:1008300080E00895CF93DF93CDB7DEB769970FB609
:10084000F894DEBF0FBECDBFFC01DB019C919F5F22
:100850009C939E012D5F3F4F81E1D9011D928A95A6
:10086000E9F729E0298384E08A8391E09D8383E08E
:100870008E832A8721E22B879C879D879F8722E290
:10088000288B2CE1298B27E02B8B25E02C8B8E8B62
:1008900020E430E0388F2F8B998F82818B83838186
:1008A00080688D8B49E150E0BE016F5F7F4F80E033
:1008B0000E94540169960FB6F894DEBF0FBECDBFFB
:1008C000DF91CF910895FC01838180640C94FC0238
:1008D000CF93DF931F92CDB7DEB76983DC01ED9133
:1008E000FC910288F389E02D41E050E0BE016F5F8A
:1008F0007F4F09950F90DF91CF9108950A970C943F
:10090000680408950895DC015B968D919C915C9735
:100910001816190674F459962D913C915A97281B74
:10092000390B5D96ED91FC91E20FF31F808190E011
:1009300008958FEF9FEF08950A970C948304FC01AC
:100940008189928997FF02C090E080E00895FC01C0
:10095000838D948D97FF02C090E080E00895FC01A4
:1009600082818F5BFB01808381E0089590E080E0CD
:100970000895FC01438D548D141615068CF4858D55
:10098000968D218D328DBA0161507109748F638FFC
:10099000F901E41BF50BE80FF91F808190E0089541
:1009A0008FEF9FEF08950A970C94B9041F920F924E
:1009B0000FB60F9211248F939F938091E100909135
:1009C000E100937F9093E10083FF0FC01092E90054
:1009D00091E09093EB001092EC0092E39093ED0085
:1009E00010920E0498E09093F00082FF22C093E0F2
:1009F0009093E9009091F200992319F09AE3909373
:100A0000E8009091B202992341F09091B202915086
:100A10009093B202911101C05D9A90910D049923B7
:100A200041F090910D04915090930D04911101C0EB
:100A3000289A84FF18C08091E2008E7E81608093A6
:100A4000E2008091E1008F7E8093E1008091B3020B
:100A50008E7E80618093B3029F918F910F900FBE25
:100A60000F901F90189580FFF7CF8091E2008E7E47
:100A700080618093E2008091E1008E7E8093E100AE
:100A80008091B3028E7E8160E5CF1F920F920FB6E8
:100A90000F921124CF92DF92EF92FF920F931F9348
:100AA0002F933F934F935F936F937F938F939F9376
:100AB000AF93BF93EF93FF93CF93DF93CDB7DEB7A1
:100AC0006C97DEBFCDBF1092E9008091E80083FFF4
:100AD00025C068E0CE0145960E948B0182EF80938D
:100AE000E8008D8987FF39C09091E80090FFFCCF26
:100AF000982F907609F034C19E894F89588D2F899F
:100B0000F88C911131C0803861F58091B4028093E6
:100B1000F1001092F1008EEF8093E8006C960FB612
:100B2000F894DEBF0FBECDBFDF91CF91FF91EF9163
:100B3000BF91AF919F918F917F916F915F914F91F5
:100B40003F912F911F910F91FF90EF90DF90CF90E9
:100B50000F900FBE0F901F9018959EEF9093E80096
:100B6000C7CF1092F100D5CF913059F48111D3CF76
:100B70004130510581F68091B4028D7F8093B4029B
:100B8000CACF933049F48111C6CF4130510519F6CF
:100B90008091B4028260F2CF953041F48091E800F8
:100BA00080FFFCCF20682093E300B5CF963009F09A
:100BB000A9C00B8D1C8D22E01092E9001092B002AA
:100BC0001092AF02F2122EC01092AE021092AD023D
:100BD0000E940C021F8299E09983FA8291E09E8321
:100BE00090EA98879AEF99872091AF023091B002EE
:100BF000275F3F4F3C832B838D831092E900109237
:100C0000B0021092AF021093AE020093AD0249E021
:100C100050E0BE016F5F7F4F80E00E9454010E9450
:100C20000C0279CF1093AE020093AD020E94F8013E
:100C3000DC0112960D911C910115110509F44BC1AF
:100C4000D801ED91FC910480F581E02DBE016B5E31
:100C50007F4FC8010995009709F038C1F801008558
:100C60001185EACFF3E0FF120EC08F89882309F4C3
:100C700040C0823061F440E862E189E291E00E9484
:100C80002101811148CF81E28093EB0047CF813071
:100C900029F440E868E080E291E0F1CF833099F7F1
:100CA0000E94F801DC011296ED90FC908E010F5F1E
:100CB0001F4F6801E114F10479F0D701ED91FC9127
:100CC0000680F781E02DB801C7010995080F111DB5
:100CD000F701E084F184EECFD8011C92F601019077
:100CE0000020E9F73197BF016C197D0940E0C6018A
:100CF000C6CF6AE071E0FB01449150E080E80E94B9
:100D0000540109CF973009F4BECF983021F481E027
:100D10008093F10000CF993009F0FDCE837009F087
:100D2000B2CFEEE0F1E081E031E096E321912223C1
:100D300071F08093E9003093EB00DF0111972C9163
:100D40002093EC009093ED008F5F873079F78EE76A
:100D50008093EA001092EA008F8980930E04DBCE24
:100D60008B8D9C8D1092E9001092B0021092AF0210
:100D70009093AE028093AD02898D81118CC08E89D3
:100D80009D89913A49F4813209F07DCF47E050E0E6
:100D900064E071E080E0B3CF913209F074CF833228
:100DA00069F48F89988DB0E0A0E080930001909362
:100DB0000101A0930201B0930301ADCE803239F45A
:100DC00067E070E084E091E00E949801A4CE823256
:100DD00009F0A1CE8F8980930B01EEEFFFE785919B
:100DE00094918B3F9C4D51F1E0E0F8E0809104013B
:100DF00090910501A0910601B0910701803B9440BC
:100E0000A105B105F1F480910B0180FD1AC0EE3F00
:100E10008AE0F80789F587E797E7918380838091D7
:100E200060008093B10288E19BE00FB6F894A8952A
:100E3000809360000FBE909360006DCEEEEFFAE0FD
:100E4000D5CF808191818737974709F064CEA895E7
:100E5000809160008861809360008091B1028093EE
:100E60006000EE3F2AE0F20789F08091FE0A90913F
:100E7000FF0A918380834FCE8081918187379807C5
:100E800051F29093FF0A8093FE0AC5CF1092FF0A99
:100E90001092FE0A40CE0E94F801DC0112960D91DC
:100EA0001C910115110509F4EECED801ED91FC91CC
:100EB0000190F081E02DBE016B5E7F4FC801099566
:100EC000811129CEF80100851185EBCF181619067E
:100ED0000CF421CED8CEF1E0FF12C4CE6EE071E06A
:100EE0000ACF1F920F920FB60F9211242F933F93A8
:100EF0008F939F93AF93BF938091990290919A02A1
:100F0000A0919B02B0919C023091980223E0230FA4
:100F10002D3758F50196A11DB11D2093980280939D
:100F2000990290939A02A0939B02B0939C028091A5
:100F30009D0290919E02A0919F02B091A002019605
:100F4000A11DB11D80939D0290939E02A0939F02CC
:100F5000B093A002BF91AF919F918F913F912F913C
:100F60000F900FBE0F901F90189526E8230F029642
:100F7000A11DB11DD2CF1F920F920FB60F92112457
:100F80008F939F9378948091C7039091C60389179C
:100F900008F06BC08C9A9091C503891708F067C060
:100FA0008D9A9091C403891708F063C08E9A90912E
:100FB000C303891708F05FC08F9A9091C203891705
:100FC00008F05BC0299A9091C103891708F057C0B7
:100FD0002B9A9091C003891708F053C02A9A9091D8
:100FE000BF03891708F04FC02E9A9091BE0389174E
:100FF00008F04BC02D9A9091BD03891708F047C0A7
:101000002C9A9091BC03891708F043C0769A90916E
:10101000BB03891708F03FC05F9A9091BA03891704
:10102000E0F5469A9091B9038917C8F55C9A9091BA
:10103000B8038917B0F5589A9091B703891798F5B6
:10104000599A9091B603891780F55A9A9091B503F1
:10105000891768F55B9A8F5F8093C7039F918F9183
:101060000F900FBE0F901F9018958C9894CF8D986D
:1010700098CF8E989CCF8F98A0CF2998A4CF2B98EB
:10108000A8CF2A98ACCF2E98B0CF2D98B4CF2C985B
:10109000B8CF7698BCCF5F98C0CF4698C3CF5C9846
:1010A000C6CF5898C9CF5998CCCF5A98CFCF5B9814
:1010B000D2CFCF93DF93109212041092110448EE16
:1010C00053E060E070E04093130450931404609385
:1010D0001504709316048AE492E0909310048093B0
:1010E0000F048FEF9FEF90931C0480931B0481E00B
:1010F000809363048093640425E734E030936604AE
:1011000020936504109268041092670410926C0496
:1011100010926B0440936D0450936E0460936F04BF
:10112000709370042CE532E03093600420935F04E8
:1011300024E732E030936A042093690480937604B4
:1011400080937704109279041092780410927B04B3
:1011500010927A0410927F0410927E0410928104FF
:101160001092800481EC809375040E94F801FC01C8
:10117000818190916304482F490F5527551F4830AE
:1011800051059CF5A281B381109709F52FE534E054
:1011900033832283208120936104809362048091B1
:1011A0006404820F808320916504A22FB0916604AD
:1011B0008A2F821B8917C8F481813D91C82FD0E006
:1011C000C35FDE4F38838F5F8183F2CFD9011896DA
:1011D0002D913C91199721153105C1F72FE534E088
:1011E00019963C932E931897D5CFDF91CF91089500
:1011F000789484B5826084BD84B5816084BD85B5F2
:10120000826085BD85B5816085BD80916E008160FD
:1012100080936E00109281008091810082608093A3
:1012200081008091810081608093810080918000A5
:101230008160809380008091910082608093910012
:1012400080919100816080939100809190008160F5
:10125000809390008091C10084608093C100809150
:10126000C10082608093C1008091C1008160809341
:10127000C1008091C30081608093C3008091C00051
:1012800082608093C0008091C20081608093C20020
:1012900080917A00846080937A0080917A008260E5
:1012A00080937A0080917A00816080937A008091A7
:1012B0007A00806880937A0010920E041092B40233
:1012C0001092B3028091D70081608093D70080EAAA
:1012D0008093D80089B5806189BD89B5826089BD58
:1012E00009B400FEFDCF0E94E4028091D8008F7CFB
:1012F00080618093D8008091E000807F8093E0003F
:101300008091E1008E7E8093E1008DE08093E20089
:10131000559A209A8FEF9FEF90931C0480931B04A3
:1013200041E150E062E872E08FE094E00E949203B5
:1013300042E050E064E972E08FE094E00E949203A2
:101340008FB7F89427EC33E0E5EBF3E02E173F0777
:1013500011F01192FBCF8C988D988E988F982998C8
:101360002B982A982E982D982C9876985F984698C6
:101370005C98589859985A985B988FBF8FB7F89493
:10138000849A859A869A879A219A239A229A269AEB
:10139000259A249A6E9A579A3E9A549A509A519A3C
:1013A000529A539A8FBF1092800089E080938100F7
:1013B00081E194E0909389008093880080916F0090
:1013C000826080936F001092C70385EB92E0909348
:1013D0007D0480937C048FEF90E090937904809358
:1013E000780410927B0410927A04CFEFD0E001EDE4
:1013F00013E030E0E32E30E0F32E0E94BF02809035
:10140000090490900A04A0900B04B0900C04861676
:101410009706A806B90608F05CC08091080487FD0D
:1014200098C0E0910804F0E0EE0FFF1FEA5BFE4F6A
:1014300020813FEF80910804FE01E81BF109EA5B7F
:10144000FE4F4081E0910804F0E0EA5BFE4F5081DE
:10145000E5EBF3E090E080E0DC01A851BC4F6C913B
:10146000662309F496C0DC01A853BC4F6C9162332B
:1014700008F07BC0AC91B0E0AC5EBE4FAC91B0E088
:10148000AA5BBE4F6C9160830196319682319105C3
:1014900019F70E94BF02AB01BC0120910C01209FF3
:1014A000C001219F900D1124092E000CAA0BBB0B2B
:1014B000840F951FA61FB71F8093090490930A04F9
:1014C000A0930B04B0930C04809108048F5F809369
:1014D000080480917A0490917B04089709F087C0F2
:1014E0008FE594E00E94B904803409F054C0D12CF7
:1014F000C12C8FE594E00E94B90430E020E0F901AE
:10150000EC0DFD1D982F9170E851FC4F908386954E
:101510002F5F3F4F2830310591F788E0C80ED11C6E
:1015200090E2C916D10429F78FE594E00E94B9042E
:101530009FEF980F973010F480930C018FE594E0A3
:101540000E94B9048FE594E00E94B9041092B4039C
:101550004EC080910804FE01E81BF109EE0FFF1F49
:10156000EA5BFE4F208130E065CF6C91613811F469
:1015700020838ACF6C91623811F4308385CF6C91CF
:10158000633811F4408380CF6C91643811F4508338
:101590007BCF108279CFE091B40398E0E99FF0010E
:1015A0001124E853FC4F8083CC24C394D12C8FE5C5
:1015B00094E00E94B904E091B40398E0E99FF0013F
:1015C0001124EC0DFD1DE853FC4F80838FEFC81AEA
:1015D000D80A98E0C916D10451F78091B4038F5FFF
:1015E0008093B4038091B403843009F4AFCFE11445
:1015F000F10409F402CF0E940000FFCEEE0FFF1F9E
:101600000590F491E02D0994F894FFCFFFFFFFFFC0
:1016100000E10000000000000700C1808100000020
:1016200000050A0F151A1F252A2F353A3F454A4F44
:10163000555A5F646A6F747A7F848A8F949A9FA4E4
:10164000AAAFB4B9BFC4C9CFD4D9DFE4E9EFF4F984
:10165000FFFF00000000000000000000000000008C
:101660000000000000000000000000000000010178
:101670000101010101010101010101020202020255
:101680000202020303030303030304040404040526
:1016900005050506060606070707070808080909DD
:1016A000090A0A0A0B0B0B0C0C0D0D0D0E0E0F0F79
:1016B00010101111121213131414151516161718F1
:1016C0001819191A1B1B1C1D1D1E1F202021222347
:1016D00023242526272728292A2B2C2D2E2F30316D
:1016E00032323334363738393A3B3C3D3E3F404264
:1016F0004344454648494A4B4D4E4F515253555627
:1017000057595A5C5D5F606263656668696B6D6EB0
:101710007072737577787A7C7E7F81838587898AFA
:101720008C8E90929496989A9C9EA0A2A4A7A9AB06
:10173000ADAFB1B4B6B8BABDBFC1C4C6C8CBCDD0C9
:10174000D2D5D7DADCDFE1E4E7E9ECEFF1F4F7F941
:10175000FCFF000000003D0292035E025302A5025E
:101760006302810200000000A8031A04FD03AF0415
:10177000A704B9048304820468046304F6FF00002C
:101780007E04CB01B60481049F04D3049C04496EFB
:1017900069742070726F6772616D20646F6E65008E
:0417A0000D0A00002E
:1070000055C000006EC000006CC000006AC00000E7
:1070100068C0000066C0000064C0000062C00000DC
:1070200060C000005EC00000FCC400005AC0000048
:1070300058C0000056C0000054C0000052C00000FC
:1070400050C000005DC000004CC000004AC00000FD
:1070500048C0000046C0000044C0000042C000001C
:1070600040C000003EC000003CC000003AC000002C
:1070700038C0000036C0000034C0000032C000003C
:1070800030C000002EC000002CC000002AC000004C
:1070900028C0000026C0000024C0000022C000005C
:1070A00020C000001EC000001CC0000011241FBE34
:1070B000CFEFDAE0DEBFCDBF11E0A0E0B1E0E6E463
:1070C000FFE702C005900D92A43BB107D9F711E08C
:1070D000A4EBB1E001C01D92AD3CB107E1F74FD385
:1070E00030C78ECFF89410926F001092810081E02B
:1070F00085BF15BE47985D9A289A0C9400000895A4
:107100001F920F920FB60F9211242F938F939F937C
:10711000EF93FF9310928500109284008091B40148
:107120009091B501009741F001979093B50180933C
:10713000B401892B09F45D9A8091B6019091B70151
:10714000009741F001979093B7018093B601892B86
:1071500009F4289A8091BA019091BB01019690930D
:10716000BB018093BA01E0E0F0E0859194918F5FDC
:107170009F4F49F08091B8019091B9010196909389
:10718000B9018093B801FF91EF919F918F912F9159
:107190000F900FBE0F901F90189584E08093E90028
:1071A0000DC08091E8008B778093E80003C08EB318
:1071B000882351F08091E80082FFF9CF8091E800A8
:1071C00085FFEFCF8091F1000895982F83E08093A1
:1071D000E9008091E80085FD0DC08091E8008E7780
:1071E0008093E80003C08EB3882369F08091E800A3
:1071F00080FFF9CF9093F1005D9884E690E0909342
:10720000B5018093B40108954F925F926F927F927F
:107210008F929F92AF92BF92CF92DF92EF92FF92A6
:107220000F931F93CF93DF9384E08093E9008091C5
:10723000E80082FF57C2289884E690E09093B70157
:107240008093B601AADF182F853481F48CE49DE188
:107250009093B9018093B80107B600FCFDCFF9996E
:10726000FECF81E180935700E89503C0843519F47F
:1072700094DF8DE00DC28C34E1F38035D1F3843797
:1072800021F484E4A2DF80E003C2813611F489E5B1
:10729000FFC18134B1F481DF182F7FDF90E0880FC8
:1072A000991FAA2797FDA095BA2F312F330F20E001
:1072B000442737FD4095542F822B932BA42BB52BBD
:1072C000B8C1803711F483E5E3C1833549F4C0E0E8
:1072D000D1E089917ADF21E0C730D207D1F7D9C157
:1072E000863521F481E371DF80E3D2C1833731F445
:1072F00087E86BDF85E969DF8EE1CAC18536B9F4BD
:10730000E0E0F0E093E085E090935700E89507B661
:1073100000FCFDCF80935700E89507B600FCFDCF39
:10732000E058FF4FA0E7E030FA0771F7A2CF8237AD
:1073300039F4E1E0F0E089E0809357008491A8C13E
:10734000863439F4E0E0F0E089E0809357008491DE
:107350009FC18E3439F4E3E0F0E089E08093570078
:10736000849196C1813539F4E2E0F0E089E08093C0
:10737000570084918DC1823631F489E526DF80E0A3
:1073800024DF80E885C1823419F0873609F0E5C032
:107390001092B9011092B80100DF082FFEDEF82E1E
:1073A000FCDE682E8554823008F071C1902F80E099
:1073B000CF2DD0E0C82BD92B10926F00173609F0D3
:1073C0004BC081E180935700E895DD24CC24C39421
:1073D0003FC0E090BD01F090BE010091BF0110914F
:1073E000C001B6E46B16D9F4ED2DF0E0EE29FF29CB
:1073F000E4918E2FEADEDD2081F082E090E0A0E0D3
:10740000B0E0E80EF91E0A1F1B1FE092BD01F092CA
:10741000BE010093BF011093C001DC2418C0D80145
:10742000C701B695A7959795879575D5CEDE82E06D
:1074300090E0A0E0B0E0E80EF91E0A1F1B1FE092EA
:10744000BD01F092BE010093BF011093C0012197CE
:10745000209709F0BECF7DC08090BD019090BE0105
:10746000A090BF01B090C00196E4691609F05DC01C
:1074700083E0F40180935700E89507B600FCFDCF48
:1074800054C0F6E46F1661F5772031F1E090BD014C
:10749000F090BE010091BF011091C0017EDED82E98
:1074A000CC24852D90E08C299D29F7010C01409278
:1074B0005700E895112482E090E0A0E0B0E0E80EEB
:1074C000F91E0A1F1B1FE092BD01F092BE0100933E
:1074D000BF011093C00102C060DE582E742423C087
:1074E000E090BD01F090BE010091BF011091C0017C
:1074F00016950795F794E79450DE682FC70113D5CA
:107500008091BD019091BE01A091BF01B091C001D9
:107510000296A11DB11D8093BD019093BE01A09361
:10752000BF01B093C001219704C05524772444249F
:107530004394209709F0A5CF96E4691641F485E0BD
:10754000F40180935700E89507B600FCFDCF8DE06D
:107550003CDE82E080936F009CC0833471F4009124
:10756000BD011091BE0119DE90E021E0F8010C018F
:1075700020935700E89511247CCE833619F5E090CE
:10758000BD01F090BE010091BF011091C00105DE68
:10759000F701E16090E021E00C0120935700E895AD
:1075A000112482E090E0A0E0B0E0E80EF91E0A1F8E
:1075B0001B1FE092BD01F092BE010093BF0110932A
:1075C000C00157CE8D3661F4E091BD01F091BE014E
:1075D00085E080935700E89507B600FCFDCF49CEC3
:1075E000823551F4E091BD01F091BE0105911491F5
:1075F000812FEBDD802F4CC0843421F5E090BD015C
:10760000F090BE010091BF011091C0011695079541
:10761000F794E794C2DD682FC70185D48091BD013E
:107620009091BE01A091BF01B091C0010296A11D31
:10763000B11D8093BD019093BE01A093BF01B09393
:10764000C00117CE843609F5E090BD01F090BE016F
:107650000091BF011091C001D801C701B695A7954F
:107660009795879558D4B1DD82E090E0A0E0B0E036
:10767000E80EF91E0A1F1B1FE092BD01F092BE0129
:107680000093BF011093C00104C08B3111F08FE350
:107690009CDD83E08093E9009091E8008091E80010
:1076A0008E778093E80095FF04C010C08EB38823C6
:1076B000C9F08091E80080FFF9CF8091E8008E77D3
:1076C0008093E80003C08EB3882361F08091E800C6
:1076D00080FFF9CF84E08093E9008091E8008B7708
:1076E0008093E800DF91CF911F910F91FF90EF9071
:1076F000DF90CF90BF90AF909F908F907F906F90D2
:107700005F904F9008959091C501892F8F778132B6
:1077100049F58091C6018032A1F0813219F5913A84
:1077200009F58091E800877F8093E8008CE091E084
:1077300067E070E027D28091E8008B778093E800C3
:107740000895913279F48091E800877F8093E80072
:107750008CE091E067E070E079D28091E8008E776C
:107760008093E800089582E061EC42E0D1D083E0AC
:1077700061E842E1CDD084E060E842E1C9C01F93F6
:10778000209100081092000844B714BE88E10FB69B
:10779000F89480936000109260000FBE80E8E0E0F3
:1077A000F0E00FB6F89480936100E09361000FBEA3
:1077B00031E035BF92E095BF3F9A209A559A809369
:1077C00061001092610047985D9A289A1092890092
:1077D0008AEF8093880090936F0083E0809381000C
:1077E000859194918F5F9F4F11F03093BC01942F3E
:1077F00041FF19C0809109012817A9F08093000862
:10780000789480911301882339F08091BA01909186
:10781000BB018F5E9240C8F3F8941092000881E09B
:10782000809313010CC090FF04C08091BC01882399
:1078300051F493FF09C080910901281729F0809124
:10784000BC01882309F04EDCD4D078941092B901A1
:107850001092B8011EEF20C0D7DC4BD38091B80145
:107860009091B90181549F4110F0109213018091C1
:10787000C1019091C20101969093C2018093C10110
:10788000292F97FF03C0512F591B252F220F28178F
:1078900010F4479801C0479A809113018823E1F6BC
:1078A0008091E00081608093E0001CDC80E090E04B
:1078B0001F910895FA01923049F0933061F09130B0
:1078C000F9F484E191E022E130E01EC086E291E02B
:1078D0002EE330E019C0882329F484E691E024E007
:1078E00030E012C0813029F488E691E02EE130E0EA
:1078F0000BC0823029F488E891E02AE230E004C02D
:1079000080E090E020E030E091838083C901089519
:107910008093E9008091EB0081608093EB001092EE
:10792000ED006093EC004093ED008091EE00881F25
:107930008827881F08958091C50188238CF403C08F
:107940008EB38823B1F08091E80082FFF9CF809157
:10795000E8008B778093E80008958EB3882349F080
:107960008091E80080FFF9CF8091E8008E778093C6
:10797000E8000895EF92FF920F931F9345D04CD0EB
:1079800008ED10E0F80180818F7780838081806826
:10799000808380818F7D808319BC1EBA1092C301C1
:1079A00080EEE82EF12CF70180818B7F8083F80137
:1079B00080818160808380E060E042E0A9DFE1EEC9
:1079C000F0E080818E7F8083E2EEF0E08081816054
:1079D0008083808188608083F70180818E7F8083AF
:1079E000F8018081806180831F910F91FF90EF905B
:1079F0000895E7EDF0E08081816080838AE482BFB2
:107A000081E08093C401B6CFE8EDF0E080818E7F05
:107A100080831092E20008951092DA001092E10043
:107A200008951F920F920FB60F9211242F933F9338
:107A30004F935F936F937F938F939F93AF93BF9376
:107A4000EF93FF938091DA0080FF1BC08091D800F4
:107A500080FF17C08091DA008E7F8093DA008091DA
:107A6000D90080FF0BC080E189BD82E189BD09B4E6
:107A700000FEFDCF81E08EBB3BD203C019BC1EBA15
:107A800037D28091E10080FF17C08091E20080FF33
:107A900013C08091E2008E7F8093E2008091E2002B
:107AA00080618093E2008091D80080628093D8004A
:107AB00019BC85E08EBB1CD28091E10084FF2CC0F4
:107AC0008091E20084FF28C080E189BD82E189BD08
:107AD00009B400FEFDCF8091D8008F7D8093D8003F
:107AE0008091E1008F7E8093E1008091E2008F7EA3
:107AF0008093E2008091E20081608093E2008091B7
:107B0000C301882331F48091E30087FD02C081E046
:107B100001C084E08EBBECD18091E10083FF21C0E5
:107B20008091E20083FF1DC08091E100877F8093F8
:107B3000E10082E08EBB1092C3018091E1008E7F54
:107B40008093E1008091E2008E7F8093E20080913B
:107B5000E20080618093E20080E060E042E0D8DEF5
:107B6000C7D1FF91EF91BF91AF919F918F917F917D
:107B70006F915F914F913F912F910F900FBE0F909A
:107B80001F9018959C014091CB015091CC01461754
:107B9000570718F4F90190E044C06115710511F020
:107BA000AB01F8CF8091E8008E778093E80040E049
:107BB00050E0F0CF8EB3882309F444C0853009F437
:107BC00043C08091E80083FF02C081E00895809166
:107BD000E80082FD31C08091E80080FF22C08091E2
:107BE000F3009091F200782F60E0292F30E0262BEF
:107BF000372B07C081918093F100415050402F5F97
:107C00003F4F4115510519F02830310598F390E0A8
:107C10002830310509F491E08091E8008E77809357
:107C2000E8004115510531F6992321F605C08EB3C0
:107C3000882341F0853041F08091E80082FFF7CF42
:107C400080E0089582E0089583E008959C01611525
:107C5000710529F48091E8008B778093E800F901A1
:107C600026C08EB3882391F1853091F18091E80090
:107C700083FF02C081E008958091E80082FFF1CF88
:107C800006C08091F10081936150704059F02091BD
:107C9000F3008091F200322F20E090E0822B932BB2
:107CA000892B79F78091E8008B778093E800611544
:107CB0007105B9F605C08EB3882341F0853041F0D7
:107CC0008091E80080FFF7CF80E0089582E008957A
:107CD00083E008950F931F93DF93CF9300D0CDB728
:107CE000DEB7E5ECF1E08091F100819381E0ED3CBD
:107CF000F807C9F708DD8091E80083FFE4C08091B0
:107D0000C5019091C601953009F46DC0963040F4DC
:107D1000913081F1913070F0933009F0D4C02AC0D5
:107D2000983009F4A3C0993009F4B2C0963009F034
:107D3000CAC07CC0803809F4C6C0823809F0C3C00C
:107D40008091C90187708093E9008091EB001092C7
:107D5000E9002091E800277F2093E80090E025E0EB
:107D6000969587952A95E1F781708093F10010929E
:107D7000F10087C0882319F0823009F0A4C08F7108
:107D8000823009F0A0C08091C701882331F520918D
:107D9000C901277009F497C02093E9008091EB0096
:107DA00080FF1BC0933021F48091EB00806213C0F0
:107DB0008091EB0080618093EB0081E090E002C055
:107DC000880F991F2A95E2F78093EA001092EA0043
:107DD0008091EB0088608093EB001092E900809125
:107DE000E800877F51C0882309F06DC01091C7015A
:107DF0001F770FB7F8948091E800877F8093E800A1
:107E00009ADD8091E80080FFFCCF8091E3008078CC
:107E1000812B8093E30080688093E300112311F4A9
:107E200082E001C083E08EBB0FBF4DC0805882301E
:107E300008F049C08091C7019091C8016091C901C3
:107E4000AE014F5F5F4F36DDBC01009709F43BC0C8
:107E50008091E800877F8093E80089819A8192DE93
:107E60008091E8008B778093E8002DC0803859F529
:107E70008091E800877F8093E8008091C301809320
:107E8000F1008091E8008E778093E80054DD1BC0FC
:107E90008823C9F49091C7019230A8F48091E8003A
:107EA000877F8093E8009093C30145DD8091C301F3
:107EB000882331F48091E30087FD02C081E001C096
:107EC00084E08EBB50DC8091E80083FF0AC0809183
:107ED000EB0080628093EB008091E800877F8093C5
:107EE000E8000F900F90CF91DF911F910F910895AF
:107EF00008951F938EB3882361F01091E9001092CA
:107F0000E9008091E80083FF01C0E4DE1770109360
:107F1000E9001F910895F999FECF92BD81BDF89AAD
:107F2000992780B50895262FF999FECF1FBA92BDE3
:107F300081BD20BD0FB6F894FA9AF99A0FBE01964A
:107F40000895F894FFCF4341544552494E4100777C
:107F500000080000000000000801120110010200EA
:107F600000084F1B059201000201000109023E00BA
:107F70000201008032090400000102020100052410
:107F800000100104240204052406000107058203F1
:107F90000800FF09040100020A00000007050402AE
:107FA00010000107058302100001040309041E03E9
:107FB000500072006F0020004D00690063007200E5
:107FC0006F002000350056002000200000002A032A
:107FD00053007000610072006B00460075006E0077
:107FE000200045006C0065006300740072006F00A3
:0A7FF0006E006900630073000000DA
:00000001FF
